:020000040800F2
:100000000050002021020008270200082B020008EF
:100010009D020008A1020008E9020008000000009B
:100020000000000000000000000000003103000894
:100030003503000800000000390300083D030008F4
:100040004D0300084D0300084D0300084D03000850
:100050004D0300084D0300084D0300084D03000840
:100060004D0300084D0300084D0300084D03000830
:100070004D0300084D0300084D0300084D03000820
:100080004D0300084D0300084D0300084D03000810
:100090004D0300084D0300084D0300084D03000800
:1000A0004D0300084D0300084D0300084D030008F0
:1000B0004D0300084D0300084D0300084D030008E0
:1000C0004D0300084D0300084D0300084D030008D0
:1000D0004D0300084D0300084D0300084D030008C0
:1000E0004D0300084D0300084D0300080000000008
:1000F0000000000000000000000000000000000000
:1001000000000000000000005FF808F100B583B0B7
:1001100000F03EFC304B314A1360314A1360314BE2
:10012000314A03E052F8041B43F8041B2F498B4269
:10013000F8D32A4B1A682E4B9A4200D0FEE7284B80
:100140001A682C4B9A42F9D1234B2B4A13602B4A45
:1001500013602B4B02E0002243F8042B294A934200
:10016000F9D3254B1B6813B9244B1B6803B1FEE779
:1001700000F01AFC694601A800F09AFB224C234BC0
:10018000E41AA410002504E0204B53F825309847CA
:100190000135AC42F8DC1E4C1E4BE41AA4100025BD
:1001A00004E01C4B53F8253098470135AC42F8DC8D
:1001B0000099019800F0D4FD0546174C174BE41A3E
:1001C000A41004E0013C154B53F824309847002C50
:1001D000F8DC284600F03EFBBABADECA0000002078
:1001E0008400002000000020D418000888000020AF
:1001F000785634123254769888000020300100205E
:1002000088000020340100207803000878030008EB
:1002100078030008780300087803000878030008D2
:1002200008B5FFF773FF00BEFEE71EF0040F0CBF1A
:10023000EFF30880EFF309807146414A10472DE93A
:10024000F04182B004468846124B5E6B9F6B9D6AFC
:100250001B6B13F0020F03D00E4BDB6A002B0CDB81
:100260000D4800F037FBCDF800803B46324629466A
:10027000204600F09DFB00BEFEE74BF6AB6100F0B0
:1002800011FC0028ECD0034B4FF00042DA6202B0C0
:10029000BDE8F08100ED00E07418000800BEFEE744
:1002A0001EF0040F0CBFEFF30880EFF309807146D6
:1002B000244A10472DE9F04182B004468846084B95
:1002C0005E6B9F6B9D6A074800F004FBCDF80080D1
:1002D0003B4632462946204600F06AFB00BEFEE758
:1002E00000ED00E0841800081EF0040F0CBFEFF3CF
:1002F0000880EFF309807146134A10472DE9F04159
:1003000082B004468846084B5E6B9F6B9D6A074827
:1003100000F0E0FACDF800803B4632462946204600
:1003200000F046FB00BEFEE700ED00E0901800087C
:1003300000BEFEE700BEFEE700BEFEE7704700001D
:100340003F020008B5020008FD02000800BEFEE7FB
:10035000D41800080000002088000020D4180008ED
:100360000000000000000000880000203401002090
:08037000000000000000000085
:1003780038B505460C46484B98420BD003F58063C8
:10038800984207D003F5A053984203D0E52143488B
:1003980000F092FA2368D3B1B3F5803F17D0B3F5D4
:1003A800003F14D0B3F5403F11D0B3F5802F0ED0E5
:1003B800B3F5A02F0BD0B3F5C02F08D0B3F5E02FBD
:1003C80005D0B3F5002F02D0B3F5102F46D123790D
:1003D800012B48D86379012B4AD8A368A3B1B3F598
:1003E800003F11D0B3F5802F0ED0B3F5C02F0BD03E
:1003F800B3F5002F08D0B3F5202F05D0B3F5402F63
:1004080002D0B3F5602F38D1E36813B1B3F5006FAC
:1004180038D1237C013BDBB20F2B38D86A6822F431
:10042800702222F480722368217943EA012313435E
:100438006B60AB681A4A1A40E368A1680B4361799C
:1004480043EA41031343AB60EB6A23F47003227C55
:10045800013AD2B243EA0253EB6238BDE6210F48B3
:1004680000F02AFAB3E7E7210C4800F025FAB1E7D3
:10047800E8210A4800F020FAAFE7E921074800F030
:100488001BFAC1E7EA21054800F016FAC1E7EB219B
:10049800024800F011FAC1E7002401408416000860
:1004A800FDF7F1FF38B504460D46114B98420CD0C4
:1004B80003F58063984208D003F5A053984204D00E
:1004C8004FF49A710B4800F0F7F9012D05D855B192
:1004D800A36843F00103A36038BD40F23511054815
:1004E80000F0EAF9F3E7A36823F00103A360F3E758
:1004F800002401408416000838B504460D46114B07
:1005080098420CD003F58063984208D003F5A053B5
:10051800984204D04FF4E9710B4800F0CDF9012D51
:1005280005D855B1A36843F4A003A36038BD40F2D1
:10053800D311054800F0C0F9F3E7A36823F4A0033A
:10054800A360F3E70024014084160008F8B50546C7
:100558000E4614461F46374B98420CD003F580636D
:10056800984208D003F5A053984204D04FF416716E
:10057800314800F0A1F9112E22D8631EDBB20F2BEF
:1005880024D8072F28D8092E2CD9EA68A6F10A03FF
:1005980003EB43030721994022EA01029F401743D6
:1005A800EF60062C29D8696B013C04EB84041F23F7
:1005B800A34021EA030106FA04F40C436C63F8BD76
:1005C80040F259211C4800F077F9D6E740F25A2149
:1005D800194800F071F9D4E740F25B21164800F0A1
:1005E8006BF9D0E72B6906EB460107228A4023EA1C
:1005F80002038F401F432F61D3E70C2C0CD8296BC3
:10060800073C04EB84041F23A34021EA030106FAF4
:1006180004F40C432C63D2E7EB6AA4F10D0101EB5F
:1006280081011F228A4023EA020306FA01F11943D5
:10063800E962C4E7002401408416000810B50446A6
:10064800094B98420CD003F58063984208D003F513
:10065800A053984204D040F2CD21044800F02CF970
:10066800E06C80B210BD00BF002401408416000871
:1006780038B505460C46134B98420CD003F58063F9
:10068800984208D003F5A053984204D040F2B541EF
:100698000D4800F011F9631EDBB2012B05D9042CBB
:1006A80003D0082C01D0102C04D12B681C4207D091
:1006B800012038BD40F2B641034800F0FDF8F4E7E8
:1006C8000020F6E70024014084160008F8B5054626
:1006D8000C46494B98421BD003F58063984217D0CB
:1006E80003F58063984213D003F5806398420FD0D6
:1006F80003F5806398420BD003F58063984207D0D6
:1007080003F58063984203D0B2213C4800F0D4F846
:10071800E3786BB1042B0BD0282B09D0482B07D0DA
:10072800142B05D0102B03D01C2B01D0182B14D15F
:100738002388BBB1E37803F00F06304613F0100F9F
:1007480006D0A378013BDBB2022B10D8A078304347
:1007580023785BB32E68002310E0B321274800F00C
:10076800ABF8E5E7B421254800F0A6F8E2E7BB219D
:10077800224800F0A1F8E9E76A610133072B14D891
:1007880001229A40218832EA0101F6D199000F2707
:100798008F4026EA070600FA01F10E43E17828297E
:1007A800EAD04829E9D12A61E7E72E602388FF2BA0
:1007B80020D96E68002302E06A6115E00133072B37
:1007C80017D803F1080101228A40218832EA010181
:1007D800F4D199000F278F4026EA070600FA01F1A5
:1007E8000E43E1782829E7D0E1784829E6D12A6143
:1007F800E4E76E60F8BD00BF00080140B4160008C9
:1008080038B504460D460E4B034003B920B940F2F3
:100818004A410C4800F050F8012D05D855B10A4A54
:1008280093691C43946138BD40F24B41054800F080
:1008380043F8F3E7044A936923EA04049461F2E76E
:100848000200C0FFE816000800100240FEE70000A2
:1008580008B5034800F054F80120FFF7F7FF00BF80
:100868001817000808B503460C4A12685AB10B4A13
:100878001068033323F003030344094A934206D85C
:10088800064A136008BD054A06491160EFE700F003
:10089800A5FA0C2303604FF0FF30F3E78C0000202B
:1008A800004C00203401002001230360014B0B6041
:1008B800704700BF0400002008B50A4601460248F8
:1008C80000F004F8FFF7C4FF2C1700080FB400B5B8
:1008D80083B004AB53F8042B01938021074800F040
:1008E800B7FA002804DC03B05DF804EB04B07047E5
:1008F8000146024800F044F8F5E700BF94000020E4
:1009080010B5044600F070FA0146204600F038F8A9
:100918000121024800F034F810BD00BFF0170008AC
:100928002DE9F04385B004460F46435633BB0425F2
:1009380028462146ABBE0446384605B0BDE8F083DC
:1009480004AA1344002203F8102C4FF00408E946C7
:1009580040464946ABBE8046761B002EECD0354655
:10096800102E28BF10250023AB42E9D214F9011B31
:1009780004AA1A4402F8101C0133F5E70E46ECE706
:1009880008B5FFF7CDFF08BD08B500F0FDF8024A2D
:10099800024B9A6008BD00BF0000000800ED00E0AF
:1009A80008B500F019F908BDF8B504460D46174614
:1009B8001E462748FFF78AFF21682648FFF786FF6B
:1009C80061682548FFF782FFA1682448FFF77EFF8A
:1009D800E1682348FFF77AFF21692248FFF776FF8D
:1009E80061692148FFF772FFA1692048FFF76EFF90
:1009F800E1691F48FFF76AFF1E48FFF767FF2946AE
:100A08001D48FFF763FF1D4CE16A1D48FFF75EFFB5
:100A1800216B1C48FFF75AFFE16B1B48FFF756FF95
:100A280015F0800F0AD115F4004F0CD11748FFF7C5
:100A38004DFF06991648FFF749FFF8BD3946154896
:100A4800FFF744FFEFE731461348FFF73FFFEDE7B5
:100A58005817000868170008781700088817000852
:100A680098170008A8170008B8170008C817000842
:100A7800D8170008E8170008F417000800ED00E090
:100A8800041800081418000824180008541800084E
:100A98005C180008341800084418000883691A888C
:100AA8008A4201D0002070470268033A012A01D91E
:100AB80000207047023383610120704782B0002311
:100AC800019300932C4A136843F4803313602A4B34
:100AD8001B6803F400330093019B01330193009BCF
:100AE8001BB9019BB3F5A06FF1D1234B1B6813F41D
:100AF800003F06D001230093009B012B04D002B0D5
:100B0800704700230093F7E71C4B1A6842F0100265
:100B18001A601A6822F003021A601A6842F0020288
:100B28001A60A3F580535A685A605A685A605A681E
:100B380042F480625A605A6822F47C125A605A68F9
:100B480042F4E8125A601A6842F080721A600A4B3E
:100B58001B6813F0007FFAD0074B5A6822F0030293
:100B68005A605A6842F002025A60034B5B6803F00D
:100B78000C03082BF9D1C2E7001002400020024004
:100B880008B5FFF79BFF08BD08B5104B1A6842F07F
:100B980001021A6059680E4A0A405A601A6822F01F
:100BA800847222F480321A601A6822F480221A6051
:100BB8005A6822F4FE025A604FF41F029A60FFF747
:100BC800DFFF044B4FF000629A6008BD001002403E
:100BD8000000FFF800ED00E01F4B5B6803F00C031A
:100BE800042B15D0082B17D01BB11C4B1C4A1A60BC
:100BF80002E01A4B1A4A1A60174B5B68C3F30313D7
:100C0800184AD35CDAB215490B68D3400B607047B9
:100C1800124B134A1A60EFE70F4A53685268C3F33E
:100C28008343023312F4803F05D10F4A02FB03F3DA
:100C38000A4A1360E0E7084A526812F4003F05D0F8
:100C4800094A02FB03F3054A1360D5E7044A02FB8D
:100C580003F3024A1360CFE7001002401C00002093
:100C680000127A000C00002000093D000E4BDA69E2
:100C780042F40032DA619A6942F005029A61A3F5FA
:100C880084331A6842F430621A601A6822F4806267
:100C98001A60064A938943F4005343F00C03938186
:100CA80040F6A663138170470010024000440040DC
:100CB800064B1B8813F0800F07D080B2034B988037
:100CC800024B1B8813F0400FFAD0704700440040D5
:100CD80070B586B01E4A936943F0040393610121FD
:100CE80040F20520FFF78CFD0124ADF814400026E2
:100CF8008DF81760174D05A92846FFF7E7FC6B68C4
:100D080043F440736B606B6823F440636B60009638
:100D180003968DF810408DF804408DF805404FF487
:100D28006023029305F5E05569462846FFF720FB46
:100D38000723224631462846FFF708FC2146284665
:100D4800FFF7B0FB21462846FFF7D6FB06B070BD7B
:100D5800001002400008014010B5FFF787FFFFF7B9
:100D6800B7FF02211A48FFF783FC80B9194B1C888A
:100D7800C4F30714FF20FFF79BFF2046FFF798FFF7
:100D8800154A136943F480631361002206E0104892
:100D9800FFF754FC0F4B1880E8E70132B2F57A7F71
:100DA80004D20023092BF8D80133FBE70A4A136958
:100DB80043F080631361002203E00133092BFCD95F
:100DC8000132044B1B889342CBD90023F6E700BFBE
:100DD800002401401401002000080140014B18685C
:100DE800704700BF20000020034613F8012B002A9B
:100DF800FBD1181A0138704730B5141E05469BB050
:100E0800184605DA8B234FF0FF302B601BB030BD3E
:100E18004FF40273ADF80C300CBF234604F1FF33D6
:100E2800029305934FF6FF7300910491ADF80E30CD
:100E380002461E9B6946284600F074F8431CBCBF56
:100E48008B232B60002CE1D00022009B1A70DDE779
:100E580007B5009313460A46014603480068FFF7A2
:100E6800CBFF03B05DF804FB200000202DE9F0471C
:100E78008E6882469E420C469146984638D8B1F80C
:100E88000CC01CF4906F31D062692568096902EBC7
:100E980042026F1A02EBD272013355103B449D4255
:100EA80038BF1D461CF4806F30D0294600F040FB47
:100EB800064650B90C234FF0FF30CAF80030A3891A
:100EC80043F04003A381BDE8F0873A46216900F06A
:100ED800BBFAA38923F4906343F08003A3812661BE
:100EE8003E44266046466561ED1BA560464500D92F
:100EF800464632464946206800F0B4FAA368002006
:100F08009B1BA36023681E442660DCE72A4600F08A
:100F180069FB06460028E2D12169504600F0BCFA78
:100F2800C8E700002DE9F04F1E468B899DB01B06CF
:100F380007460D4614460ED50B6963B9402100F0EB
:100F4800F7FA2860286120B90C233B604FF0FF3086
:100F5800C9E040236B610023099320238DF82930D1
:100F680030234FF0010ADFF898918DF82A30039664
:100F780023461E4613F8012B0AB1252AF9D1B6EBF0
:100F8800040B0BD05B46224629463846FFF76EFF16
:100F9800013000F0A380099B5B4409933378002B50
:100FA80000F09C8000234FF0FF32CDE90523013685
:100FB800049307938DF853301A933446052214F896
:100FC800011B4F4800F032FA049BC0B9D90644BF50
:100FD80020228DF853201A0744BF2B228DF8532066
:100FE80032782A2A13D0344600200A26079A214646
:100FF80011F8013B303B092B4BD970B914E0A0EB39
:1010080009000AFA00F0184304902646D5E7039A27
:10101800111D12680391002A01DB079204E0524275
:1010280043F002030792049323782E2B0CD16378A4
:101038002A2B33D1039B02341A1D1B680392002B01
:10104800B8BF4FF0FF3305932E4E03222178304668
:1010580000F0ECF938B14023801B03FA00F0049B40
:1010680001340343049314F8011B062226488DF823
:10107800281000F0DBF9002838D0244B13BB039B61
:10108800073323F0070308330393099B4344099369
:101098006EE706FB023201200C46A8E700230A2669
:1010A800194601340593204610F8012B303A092AD5
:1010B80003D9002BC8D00591C6E706FB01210123FF
:1010C8000446F0E703AB00932A46114B04A93846BF
:1010D800AFF30080B0F1FF3F8046D6D1AB895B0605
:1010E8003FF534AF09981DB0BDE8F08F03AB00930E
:1010F8002A46074B04A9384600F082F8EAE700BF01
:10110800A0180008A6180008AA1800080000000087
:10111800750E00082DE9F04791461F468A680B694D
:1011280006469342B8BF1346C9F8003091F84320E9
:101138000C46DDF8208012B10133C9F8003023686D
:10114800990642BFD9F800300233C9F80030256843
:1011580015F0060507D104F1190AE368D9F800204B
:101168009B1AAB4229DC94F843302268003318BF3D
:10117800012392062ED404F1430239463046C04773
:10118800013021D02368E56803F00603042B18BF5B
:101198000025D9F800204FF0000908BFAD1AA36850
:1011A800226908BF25EAE5759342C4BF9B1AED186A
:1011B8001A344D451AD1002008E001235246394619
:1011C8003046C047013003D14FF0FF30BDE8F0870B
:1011D8000135C2E73020E11881F843005A1C94F821
:1011E80045102244023382F84310C4E70123224603
:1011F80039463046C0470130E6D009F10109D8E741
:101208002DE9F04306460C4601F14300097E85B0FE
:101218006E29984617460C9B00F0BB8024D863299A
:1012280039D00AD8002900F0C480582900F09280EB
:1012380004F1420584F8421035E0642901D0692997
:10124800F6D125681A6815F0800F02F104012CD038
:1012580012681960002A03DA2D23524284F84330B9
:10126800DFF8C0C10A233FE0732900F0A68008D840
:101278006F2921D07029DBD1226842F02002226038
:1012880003E0752918D07829D2D17822DFF898C1DF
:1012980084F8452062E01A6804F14205111D1960BE
:1012A800136884F84230012394E0126815F0400F67
:1012B800196018BF12B2CDE7D4F800C01A681CF044
:1012C800800F02F104051D6001D0126803E01CF0D4
:1012D800400FFAD012886F290CBF08230A23DFF8C1
:1012E80044C1002184F843106568002DA8BF216817
:1012F800A560A4BF21F0040121600AB9002D46D0E1
:101308000546B2FBF3F103FB112E1CF80EE09342E5
:1013180005F801ED39D9082B0BD12368DA0708D570
:10132800236962689A42DEBF302305F8013C05F163
:10133800FF35401B2061CDF800803B4603AA2146BB
:101348003046FFF7E7FE013049D14FF0FF3005B0D6
:10135800BDE8F083DFF8CCC084F845101D6821682B
:1013680055F8042B1D600D060BD5CD0744BF41F081
:10137800200121601AB9236823F020032360102379
:10138800AFE74B0648BF92B2EFE70A46B9E7054612
:10139800C1E71A68D4F800C0151D61691CF0800FF8
:1013A8001D60136801D0196003E01CF0400FFAD0EB
:1013B8001980002305462361BDE71A68111D1960CD
:1013C800156800216268284600F030F808B1401B13
:1013D800606063682361002384F84330ABE72369C6
:1013E8002A4639463046C0470130AED023689B07AD
:1013F80013D4E068039B9842B8BF1846A7E70123B7
:101408004A4639463046C04701309ED00135E36828
:10141800039A9B1AAB42F2DCEBE7002504F11909A9
:10142800F5E700BFB1180008C218000810B5C9B226
:1014380002449042034601D1002303E01C780130A6
:101448008C42F6D1184610BD0A44914200F1FF3390
:1014580000D1704710B511F8014B914203F8014FC4
:10146800F9D110BD884210B501EB020302D98342BD
:101478001C4607D8421E994208D011F8014B02F8C1
:10148800014FF8E783189A1A9A4200D110BD14F850
:10149800011D03F8011DF7E738B50546002943D0BB
:1014A80051F8043C0C1F002BB8BFE41800F0D0F82A
:1014B8001E4A1368104633B9636014602846BDE8B5
:1014C800384000F0CBB8A3420BD921686218934288
:1014D80001BF1A685B685218226063600460EDE718
:1014E80013465A680AB1A242FAD919685818A04294
:1014F8000BD120680144581882421960DED1106867
:101508005268014419605A60D8E702D90C232B604D
:10151800D4E7206821188A4201BF11685268091867
:10152800216062605C60C9E738BD00BF1801002017
:10153800F8B5CD1C25F0030508350C2D38BF0C2552
:10154800002D064601DBA94203D90C233360002095
:10155800F8BD00F07DF821490A6814469CB9204F6F
:101568003B6823B92146304600F062F838602946C6
:10157800304600F05DF8431C23D10C23304633601D
:1015880000F06CF8E3E723685B1B17D40B2B03D937
:1015980023601C44256004E06368A2420CBF0B6012
:1015A8005360304600F05AF804F10B00231D20F078
:1015B8000700C21ACCD01B1AA350C9E72246646898
:1015C800CCE7C41C24F00304A042E3D0211A30461F
:1015D80000F02EF80130DDD1CFE700BF1801002060
:1015E8001C010020F8B5074614460E4621B91146DD
:1015F800BDE8F840FFF79CBF22B9FFF74DFF25462D
:101608002846F8BD00F030F8A0420FD221463846EF
:10161800FFF78EFF05460028F2D031462246FFF735
:1016280013FF31463846FFF737FFE9E73546E7E766
:1016380038B50023054C054608462360FFF712F924
:10164800431C02D1236803B12B6038BD2001002060
:10165800014800F011B800BF28010020014800F03F
:101668000CB800BF2801002051F8043C181F002BBB
:10167800BCBF0B58C0187047704770472E2E2F7389
:10168800797374656D2F7372632F73746D3332665B
:10169800312D7374647065726970682F73746D335B
:1016A80032663130785F6164632E63002E2E2F73AB
:1016B800797374656D2F7372632F73746D3332662B
:1016C800312D7374647065726970682F73746D332B
:1016D80032663130785F6770696F2E6300000000F2
:1016E8002E2E2F73797374656D2F7372632F737435
:1016F8006D333266312D7374647065726970682F4A
:1017080073746D3332663130785F7263632E6300B1
:1017180061626F727428292C2065786974696E6714
:101728002E2E2E006173736572745F706172616D25
:101738002829206661696C65643A2066696C6520B1
:10174800222573222C206C696E652025640A00000E
:10175800537461636B206672616D653A0A0000001C
:10176800205230203D2020253038580A0000000043
:10177800205231203D2020253038580A0000000032
:10178800205232203D2020253038580A0000000021
:10179800205233203D2020253038580A0000000010
:1017A80020523132203D20253038580A00000000F0
:1017B800204C52203D2020253038580A00000000D7
:1017C800205043203D2020253038580A00000000D2
:1017D80020505352203D20253038580A0000000080
:1017E8004653522F4641523A0A00000020434653BE
:1017F80052203D2020253038580A00002048465302
:1018080052203D2020253038580A000020444653F5
:1018180052203D2020253038580A000020414653E8
:1018280052203D2020253038580A0000204D4D46D2
:101838004152203D20253038580A000020424641B8
:1018480052203D2020253038580A00004D69736326
:101858000A000000204C522F4558435F524554550A
:10186800524E3D20253038580A0000005B4861720E
:10187800644661756C745D0A000000005B42757314
:101888004661756C745D0A005B55736167654661F6
:10189800756C745D0A000000232D302B2000686CE5
:1018A8004C0065666745464700303132333435367B
:1018B80037383941424344454600303132333435B4
:0B18C8003637383961626364656600E2
:1018D4007856341290000020000000000000000040
:1018E40000000000010203040607080900A24A04DC
:1018F40024000020000000000000000000000000A0
:1019040000000000000000000000000000000000D3
:1019140000000000000000000000000000000000C3
:1019240000000000000000000000000000000000B3
:1019340000000000000000000000000000000000A3
:101944000000000000000000000000000000000093
:081954000000000032547698F7
:040000050800010DE1
:00000001FF
